:020000040800F2
:10000000D806002061020008490600089103000894
:10001000450600081D030008FD0700080000000059
:10002000000000000000000000000000BD06000805
:100030002103000800000000B9060008C1060008FE
:100040007B0200087B0200087B0200087B0200089C
:100050007B0200087B0200087B02000825030008E1
:10006000490300086D0300087B0200087B020008BA
:100070007B0200087B0200087B0200087B0200086C
:100080007B0200087B0200087B02000800000000E1
:100090000000000000000000000000007B020008DB
:1000A0007B0200087B0200087B0200087B0200083C
:1000B0007B0200087B0200087B0200087B0200082C
:1000C0007B0200087B0200087B0200087B0200081C
:1000D0007B0200087B0200087B0200080000000091
:1000E0007B0200087B0200087B0200080000000081
:1000F0000000000000000000000000007B0200087B
:10010000000000007B0200087B0200087B02000860
:1001100000000000000000000000000000000000DF
:100120007B0200087B0200087B0200087B020008BB
:100130007B0200080000000000000000000000003A
:100140000000000000000000000000007B0200082A
:100150007B0200087B0200087B0200087B0200088B
:100160007B0200087B020008000000000000000085
:10017000000000000000000000000000000000007F
:10018000000000007B0200080000000000000000EA
:100190007B02000800F002F800F052F814A696E87E
:1001A000000CB244B344DA4501D100F049F8BAE892
:1001B0000F000FA696E83000A5EB040504EB060738
:1001C000AAEB0704A7F101074FEA15154FEA34140B
:1001D000A4F10104AC4201D300F032F813F0010F96
:1001E00018BFFB1A43F0010300F001F8DBE71847E2
:1001F0007C0800009C080000103A24BF78C878C131
:10020000FAD8520724BF30C830C144BF04680C601C
:1002100070470000704700000023002400250026DE
:10022000103A28BF78C1FBD8520728BF30C148BF59
:100230000B6070471FB500F00CFC1FBD10B510BD62
:1002400000F031F81146FFF7F5FF00F0E3FB00F096
:100250004FF803B4FFF7F2FF03BC00F057F80000BB
:100260000948804709480047FEE7FEE7FEE7FEE74A
:10027000FEE7FEE7FEE7FEE7FEE7FEE70448054986
:10028000054A064B70470000E90700089501000881
:10029000D8000020D8060020D8020020D802002074
:1002A000704770477047754600F02CF8AE46050061
:1002B0006946534620F00700854618B020B5FFF781
:1002C000DDFFBDE820404FF000064FF000074FF083
:1002D00000084FF0000BAC46ACE8C009ACE8C00920
:1002E000ACE8C009ACE8C00921F007018D467047B1
:1002F00010B50446AFF300802046BDE81040FFF77C
:10030000A8BF000000487047700000200149182075
:10031000ABBEFEE72600020070470000FFE7FEE7E5
:100320007047000080B5022000F062F850B1FFE78E
:10033000022000F053F840F22C01C2F2000101202B
:100340000872FFE780BD000080B5042000F050F87F
:1003500050B1FFE7042000F041F840F21801C2F26A
:10036000000101200872FFE780BD000080B5082071
:1003700000F03EF850B1FFE7082000F02FF840F2FF
:100380000401C2F2000101200872FFE780BD0000F5
:10039000FFE7FEE782B00190019A43F64000C4F205
:1003A0000200016811430160006801990840009053
:1003B000009802B07047000082B00190019A43F6A5
:1003C0004400C4F202000168114301600068019911
:1003D00008400090009802B07047000081B0009083
:1003E000009843F61441C4F20101086001B070475F
:1003F00081B0009043F61440C4F2010000680099F7
:100400000840401AB0FA80F0400901B0704700007F
:1004100043F60040C4F20200006800F00700704795
:1004200081B0009043F60041C4F20201086820F058
:100430000700009A1043086001B0704782B0019035
:1004400000910198006900990840401AB0FA80F0C4
:10045000400902B07047000082B0019000910198FD
:10046000006900990840401AB0FA80F0400902B0D3
:100470007047000080B582B0019001984FF47A7106
:1004800000F002F802B080BD82B0019000910198A6
:100490000099B0FBF1F001384EF21401CEF20001E8
:1004A00008604EF21801CEF20001002008604EF202
:1004B0001001CEF200010520086002B07047000074
:1004C00047F20400C4F200000068C0F380307047B7
:1004D00081B0009047F20001C4F20001086820F4E6
:1004E0004040009A1043086001B0704743F608008E
:1004F000C4F20200006800F00C00704743F60001EF
:10050000C4F20201086840F0010008607047000072
:1005100043F60000C4F202000068C0F340007047D8
:1005200081B0009043F60001C4F20201086820F097
:10053000F800009A40EAC200086001B0704700006D
:1005400084B0039002910192009343F60401C4F237
:100550000201086848F20002CFF6BF721040039A09
:10056000029B1A43019B42EA831210430860086809
:1005700020F44030009A1043086004B07047000037
:1005800043F60001C4F20201086840F08070086080
:100590007047000043F60000C4F202000068C0F398
:1005A0004060704781B0009043F60801C4F2020138
:1005B000086820F0F000009A1043086001B070470E
:1005C00081B0009043F60801C4F20201086820F4EB
:1005D000E050009A1043086001B0704781B000906D
:1005E00043F60801C4F20201086820F46040009A52
:1005F0001043086001B0704781B0009043F60801D5
:10060000C4F20201086820F00300009A1043086059
:1006100001B0704781B0009043F68C01C4F2020132
:10062000086820F08070009A1043086001B070479D
:1006300081B00090009840F20001C2F20001086011
:1006400001B07047FFE7FEE7FFE7FEE788B00790DD
:1006500006910592079800F0070004900498C0F1F5
:100660000700052803D3FFE70420019004E0049865
:10067000C0F107000190FFE701980390049804304F
:10068000062803D8FFE70020009003E00498033811
:100690000090FFE70098029006980399012202FA61
:1006A00001F101390840029B984005999A40013AAE
:1006B0001140084308B070477047000070470000C1
:1006C00080B582B040F2D001C2F200010191086809
:1006D0000130086040F20400C2F2000000F0D8F8D7
:1006E00040F22C00C2F2000000F0D2F840F21800F4
:1006F000C2F2000000F0CCF801980068472819D336
:10070000FFE740F24000C2F2000000F03BF940F287
:100710005000C2F2000000F035F940F26000C2F271
:10072000000000F02FF940F2D001C2F200010020D9
:100730000860FFE702B080BD80B582B00220FFF7FD
:100740006FFEFFE7FFF764FE022801D0FFE7F9E73D
:100750004FF40040FFF7BCFE1020FFF7E1FEFFF76B
:10076000CDFEFFE7FFF7D4FE012801D0FFE7F9E750
:10077000002010214FF4A8724FF48033FFF7E0FE01
:10078000FFF7FEFEFFE7FFF705FF012801D0FFE7B7
:10079000F9E7FFE7FFF794FE08B9FFE7FAE7002063
:1007A0000190FFF7FFFE4FF48050FFF709FF01981B
:1007B000FFF714FF0220FFF71FFFFFE7FFF796FE8A
:1007C000082801D0FFE7F9E74BF60050C0F20150CE
:1007D0000090FFF74FFE0098FFF72AFF0020FFF779
:1007E00019FF02B080BD00004EF68851CEF2000124
:1007F000086840F47000086070470000FFE7FEE7FB
:100800004EF60C50CEF200000068C0F30220704794
:1008100082B08DF8070000919DF9070000280AD4E6
:10082000FFE7009800019DF907104EF20042CEF25A
:10083000000288540BE0009800019DF8071001F0B9
:100840000F014EF61452CEF200028854FFE702B0B8
:100850007047000083B00290029800F007000090FB
:100860004EF60C51CEF200010868019001984FF647
:10087000FF02104001900198009A40EA02200022F5
:10088000C0F2FA52104301900198086003B070471B
:1008900080B582B00190019800780146009140B186
:1008A000FFE70098012818D0FFE70098022834D00D
:1008B00066E001994620488001990020486001992E
:1008C00048700198007A38B1FFE70199012008705B
:1008D000019900200872FFE752E00198007A58B1B0
:1008E000FFE701990020486001994870019A46216C
:1008F00051800199087243E001984088012805DB86
:10090000FFE7019948880138488039E001990220C1
:10091000087001994620488032E00199C868096949
:10092000FFF78CFD60B9FFE7019900200870019A7C
:1009300046215180019A0121517201994860FFE7D7
:1009400001994868013048600198406841F6583183
:10095000884204D3FFE70199032048700FE0019813
:10096000406840F6B831884204D3FFE7019902207D
:10097000487003E0019901204870FFE7FFE7FFE7B7
:1009800002B080BD80B584B00390039908684968BF
:10099000FFF762FD0090039908688968FFF75CFD26
:1009A000009940EA41008DF80B000398017B9DF807
:1009B0000B0040EA810001460191012819D0FFE7B0
:1009C000019802281AD0FFE70198042816D0FFE703
:1009D0000198073802280CD3FFE701980B280DD0A7
:1009E000FFE701980D2809D0FFE701980E280AD1EA
:1009F000FFE70399C8890130C88105E00399C889D8
:100A00000138C88100E0FFE79DF80B0003990873E7
:100A100004B080BD80B582B00020009001904FF4FA
:100A20008040FFF7C9FC4FF08050FFF7B3FC032074
:100A3000FFF710FFFFF7E4FE009A0F21FFF706FE15
:100A400001464FF0FF30FFF7E3FEFFF775FEFFE7CB
:100A5000FEE7F1EE100A4FF6FF71C0F2C03120EA56
:100A6000010040F04070E1EE100A7047900A000863
:100A70000000002070000000F8010008000B0008D2
:100A80007000002068060000180200080000000046
:100A90000024F4000000000000000000000000003E
:100AA00000040240080000000000000000000000F8
:100AB00000000000000402400400000000000000EC
:100AC00000000000000000000004024002000000DE
:100AD00000000240080000001000000000000000BC
:100AE0000000024020000000400000000000000064
:100AF0000000024080000000000100000000000033
:040000050800019559
:00000001FF
