:020000040800F2
:10000000A0060020610200081506000895030008FC
:10001000110600081D030008550700080000000035
:100020000000000000000000000000008906000839
:100030002103000800000000850600088D06000866
:100040007B0200087B0200087B0200087B0200089C
:100050007B0200087B020008250300084D0300080E
:10006000710300087B0200087B0200087B02000885
:100070007B0200087B0200087B0200087B0200086C
:100080007B0200087B0200087B02000800000000E1
:100090000000000000000000000000007B020008DB
:1000A0007B0200087B0200087B0200087B0200083C
:1000B0007B0200087B0200087B0200087B0200082C
:1000C0007B0200087B0200087B0200087B0200081C
:1000D0007B0200087B0200087B0200080000000091
:1000E0007B0200087B0200087B0200080000000081
:1000F0000000000000000000000000007B0200087B
:10010000000000007B0200087B0200087B02000860
:1001100000000000000000000000000000000000DF
:100120007B0200087B0200087B0200087B020008BB
:100130007B0200080000000000000000000000003A
:100140000000000000000000000000007B0200082A
:100150007B0200087B0200087B0200087B0200088B
:100160007B0200087B020008000000000000000085
:10017000000000000000000000000000000000007F
:10018000000000007B0200080000000000000000EA
:100190007B02000800F002F800F052F814A696E87E
:1001A000000CB244B344DA4501D100F049F8BAE892
:1001B0000F000FA696E83000A5EB040504EB060738
:1001C000AAEB0704A7F101074FEA15154FEA34140B
:1001D000A4F10104AC4201D300F032F813F0010F96
:1001E00018BFFB1A43F0010300F001F8DBE71847E2
:1001F0005006000070060000103A24BF78C878C18D
:10020000FAD8520724BF30C830C144BF04680C601C
:1002100070470000704700000023002400250026DE
:10022000103A28BF78C1FBD8520728BF30C148BF59
:100230000B6070471FB500F0F6FA1FBD10B510BD7A
:1002400000F031F81146FFF7F5FF00F0CDFA00F0AD
:100250004FF803B4FFF7F2FF03BC00F057F80000BB
:100260000948804709480047FEE7FEE7FEE7FEE74A
:10027000FEE7FEE7FEE7FEE7FEE7FEE70448054986
:10028000054A064B70470000410700089501000829
:10029000A0000020A0060020A0020020A002002054
:1002A000704770477047754600F02CF8AE46050061
:1002B0006946534620F00700854618B020B5FFF781
:1002C000DDFFBDE820404FF000064FF000074FF083
:1002D00000084FF0000BAC46ACE8C009ACE8C00920
:1002E000ACE8C009ACE8C00921F007018D467047B1
:1002F00010B50446AFF300802046BDE81040FFF77C
:10030000A8BF0000004870474000002001491820A5
:10031000ABBEFEE72600020070470000FFE7FEE7E5
:100320007047000080B582B0012000F063F858B13A
:10033000FFE70120019000F053F8019840F204011A
:10034000C2F200010872FFE702B080BD80B5022052
:1003500000F050F850B1FFE7022000F041F840F201
:100360002C01C2F2000101200872FFE780BD0000ED
:1003700080B5042000F03EF850B1FFE7042000F003
:100380002FF840F21801C2F2000101200872FFE7C5
:1003900080BD0000FFE7FEE782B00190019A43F6BE
:1003A0004000C4F202000168114301600068019935
:1003B00008400090009802B07047000082B00190A1
:1003C000019A43F64400C4F202000168114301603F
:1003D0000068019908400090009802B07047000042
:1003E00081B00090009843F61441C4F20101086006
:1003F00001B0704781B0009043F61440C4F2010090
:10040000006800990840401AB0FA80F0400901B035
:100410007047000043F60040C4F20200006800F09C
:100420000700704781B0009043F60041C4F202011A
:10043000086820F00700009A1043086001B0704778
:1004400080B582B0019001984FF47A7100F002F803
:1004500002B080BD82B00190009101980099B0FB7C
:10046000F1F001384EF21401CEF2000108604EF2B4
:100470001801CEF20001002008604EF21001CEF209
:1004800000010520086002B07047000047F2040038
:10049000C4F200000068C0F38030704781B0009063
:1004A00047F20001C4F20001086820F44040009ABD
:1004B0001043086001B0704743F60800C4F2020020
:1004C000006800F00C00704743F60001C4F202011E
:1004D000086840F0010008607047000043F6000023
:1004E000C4F202000068C0F34000704781B0009081
:1004F00043F60001C4F20201086820F0F800009AF7
:1005000040EAC200086001B07047000084B0039068
:1005100002910192009343F60401C4F202010868BB
:1005200048F20002CFF6BF721040039A029B1A43B2
:10053000019B42EA831210430860086820F44030AF
:10054000009A1043086004B07047000043F60001B1
:10055000C4F20201086840F0807008607047000033
:1005600043F60000C4F202000068C0F34060704728
:1005700081B0009043F60801C4F20201086820F03F
:10058000F000009A1043086001B0704781B00090FD
:1005900043F60801C4F20201086820F4E050009A12
:1005A0001043086001B0704781B0009043F6080125
:1005B000C4F20201086820F46040009A1043086009
:1005C00001B0704781B0009043F60801C4F2020107
:1005D000086820F00300009A1043086001B07047DB
:1005E00081B0009043F68C01C4F20201086820F04B
:1005F0008070009A1043086001B0704781B000908D
:10060000009840F20001C2F20001086001B070479A
:10061000FFE7FEE7FFE7FEE788B007900691059247
:10062000079800F0070004900498C0F1070005281F
:1006300003D3FFE70420019004E00498C0F1070011
:100640000190FFE70198039004980430062803D82E
:10065000FFE70020009003E0049803380090FFE7D4
:100660000098029006980399012202FA01F10139DB
:100670000840029B984005999A40013A114008436E
:1006800008B07047704700007047000070470000D6
:1006900080B582B00220FFF7C5FEFFE7FFF7BAFE84
:1006A000022801D0FFE7F9E74FF40040FFF7F6FE1C
:1006B0001020FFF71BFFFFF707FFFFE7FFF70EFF15
:1006C000012801D0FFE7F9E7002010214FF4A872BC
:1006D0004FF48033FFF71AFFFFF738FFFFE7FFF70C
:1006E0003FFF012801D0FFE7F9E7FFE7FFF7CEFE64
:1006F00008B9FFE7FAE700200190FFF739FF4FF450
:100700008050FFF743FF0198FFF74EFF0220FFF7ED
:1007100059FFFFE7FFF7D0FE082801D0FFE7F9E710
:100720004BF60050C0F201500090FFF789FE009890
:10073000FFF764FF0020FFF753FF02B080BD000009
:100740004EF68851CEF20001086840F4700008604F
:1007500070470000FFE7FEE74EF60C50CEF20000B7
:100760000068C0F30220704782B08DF80700009146
:100770009DF9070000280AD4FFE7009800019DF9C1
:1007800007104EF20042CEF2000288540BE00098AF
:1007900000019DF8071001F00F014EF61452CEF241
:1007A00000028854FFE702B07047000083B0029057
:1007B000029800F0070000904EF60C51CEF20001B6
:1007C0000868019001984FF6FF02104001900198CF
:1007D000009A40EA02200022C0F2FA52104301902F
:1007E0000198086003B0704780B582B00020009087
:1007F00001904FF48040FFF7E1FD4FF08050FFF78C
:10080000CBFD0320FFF7D2FFFFF7A6FF009A0F21D1
:10081000FFF702FF01464FF0FF30FFF7A5FFFFF79C
:1008200037FFFFE7FEE7F1EE100A4FF6FF71C0F267
:10083000C03120EA010040F04070E1EE100A70473C
:10084000600800080000002040000000F8010008D7
:10085000A008000840000020600600001802000800
:100860000024F40000000000000000000000000070
:100870000004024001000000000000000000000031
:10088000000000000004024004000000000000001E
:100890000000000000000000000402400200000010
:040000050800019559
:00000001FF
